:020000040800F2
:100000000805002001010008110300080903000889
:100010000D03000849010008DB050008000000008E
:10002000000000000000000000000000890300083C
:100030004D010008000000001303000875040008CB
:100040001B0100081B0100081B0100081B01000820
:100050001B0100081B0100081B0100081B01000810
:100060001B0100081B0100081B0100081B01000800
:100070001B0100081B0100081B0100081B010008F0
:100080001B0100081B0100081B0100081B010008E0
:100090001B0100081B0100081B0100081B010008D0
:1000A0001B0100081B0100081B0100081B010008C0
:1000B0001B0100081B0100081B0100081B010008B0
:1000C0001B0100081B0100081B0100081B010008A0
:1000D0001B010008D90400081B0100081B010008CF
:1000E0001B0100081B0100081B010008DFF80CD0F1
:1000F00000F018F8004800474F07000808050020E6
:100100000648804706480047FEE7FEE7FEE7FEE7B1
:10011000FEE7FEE7FEE7FEE7FEE7FEE779040008FC
:10012000ED000008064C074D06E0E06840F00103D2
:1001300094E8070098471034AC42F6D3FFF7DAFF93
:10014000580700086807000800BFFEE7704747E04F
:1001500000BF00BF00BF00BF00BF00BF00BF00BFA7
:1001600000BF00BF00BF00BF00BF00BF00BF00BF97
:1001700000BF00BF00BF00BF00BF00BF00BF00BF87
:1001800000BF00BF00BF00BF00BF00BF00BF00BF77
:1001900000BF00BF00BF00BF00BF00BF00BF00BF67
:1001A00000BF00BF00BF00BF00BF00BF00BF00BF57
:1001B00000BF00BF00BF00BF00BF00BF00BF00BF47
:1001C00000BF00BF00BF00BF00BF00BF00BF00BF37
:1001D00000BF00BF00BF00BF00BF00BF00BF00BF27
:1001E000011EA0F10100B3D170472DE9F041024694
:1001F00000250026002000230024002791F803C0DA
:100200000CF00F0591F803C00CF0100CBCF1000FBE
:1002100003D091F802C04CEA050591F800C0BCF18A
:10022000000F31D0146800202BE04FF0010C0CFAC5
:1002300000F3B1F800C00CEA03069E4220D183000F
:100240004FF00F0C0CFA03F7BC4305FA03FC4CEA21
:10025000040491F803C0BCF1280F06D14FF0010C43
:100260000CFA00FCC2F814C00AE091F803C0BCF11B
:10027000480F05D14FF0010C0CFA00FCC2F810C079
:10028000401C0828D1D31460B1F800C0BCF1FF0FA6
:1002900034DD546800202EE000F1080C4FF0010816
:1002A00008FA0CF3B1F800C00CEA03069E4221D113
:1002B00083004FF00F0C0CFA03F7BC4305FA03FC64
:1002C0004CEA040491F803C0BCF1280F05D100F1F9
:1002D000080C08FA0CF8C2F8148091F803C0BCF1BD
:1002E000480F07D100F1080C4FF0010808FA0CF88C
:1002F000C2F81080401C0828CED35460BDE8F081BD
:10030000416170470161704700BFFEE700BFFEE733
:100310007047704729B1064A92690243044B9A61BB
:1003200004E0034A92698243014B9A6170470000DE
:100330000010024021B1028842F04002028004E035
:1003400002884FF6BF731A400280704710B5002232
:10035000028802F441520B884C8823438C88234343
:10036000CC8823430C8923434C8923438C89234322
:10037000CC8923431A430280838B4FF2FF742340BE
:1003800083830B8A038210BD704710B500F002F81A
:1003900010BD00000CB500200190009033480068AB
:1003A00040F480303149086000BF3048006800F4F4
:1003B000003000900198401C0190009818B90198F5
:1003C000B0F5A06FF1D12948006800F4003010B1F9
:1003D0000120009001E0002000900098012843D106
:1003E0002348006840F01000214908600846006872
:1003F00020F0030008600846006840F00200086032
:100400001A484068194948600846406848600846EC
:10041000406840F4806048600846406820F47C10E2
:1004200048600846406840F4E810486008460068A4
:1004300040F08070086000BF0C48006800F0007059
:100440000028F9D00948406820F0030007494860B7
:100450000846406840F00200486000BF034840681A
:1004600000F00C000828F9D10CBD0000001002407B
:10047000002002407047000010B51348006840F0AB
:1004800001001149086008464068104908400E49BB
:100490004860084600680E4908400B490860084655
:1004A000006820F4802008600846406820F4FE00C0
:1004B00048604FF41F008860FFF767FF4FF000604F
:1004C0000449086010BD0000001002400000FFF861
:1004D000FFFFF6FE08ED00E000B52148008800F0BF
:1004E0002000E0B11E48008820F020001C49088050
:1004F0001C48B0F80201FF280EDA081D0088C1B2BE
:100500001848B0F80221B0F80201401C154BA3F8BE
:1005100002011846815402E01148001D008810486D
:10052000008800F01000C8B10D4800880C48001D7C
:10053000008800200B49B1F802110A4A50540120EA
:10054000114681F8000108A000F03CF80548B0F819
:10055000021100F015F809A000F034F800BD000009
:1005600000380140000000205553415254312052C0
:10057000656376204563686F203A20000D0A00000D
:1005800000B502460B4603E0107800F007F8521C55
:10059000181EA3F101018BB2F6D100BD00BF0849BE
:1005A000098801F080010029F9D00549091D08805A
:1005B00000BF0349098801F040010029F9D07047C4
:1005C0000038014000B5024603E01078FFF7E6FF6F
:1005D000521C10780028F8D100BD00BFFEE70000D3
:1005E00008B501210420FFF795FE0120ADF80000B9
:1005F00010208DF8030003208DF802006946114891
:10060000FFF7F3FD0220ADF8000048208DF803004D
:1006100069460C48FFF7E9FD1020ADF800008DF8A1
:10062000030003208DF8020069460648FFF7DDFD50
:1006300010210448FFF766FE01210248FFF762FE21
:1006400008BD00000008014010B5FFF7C9FF00F029
:100650001BF800F001F810BD10B510210948FFF794
:1006600051FE01210748FFF74BFE4FF47A70FFF768
:100670006EFD01210348FFF745FE42F21070FFF7BF
:1006800066FD10BD0008014000B587B0012141F2B0
:100690000400FFF73FFE2020ADF8180018208DF869
:1006A0001B0003208DF81A0006A91F48FFF79DFDC7
:1006B0004020ADF8180004208DF81B0006A91A4848
:1006C000FFF793FD8020ADF8180018208DF81B006F
:1006D00003208DF81A0006A91348FFF786FD0020B5
:1006E000ADF804004FF48270ADF806000020ADF8BC
:1006F0000800ADF80A00ADF80C004FF40070ADF83A
:100700000E001020ADF810000020ADF812000720F8
:10071000ADF8140001A90548FFF718FE01210348B0
:10072000FFF708FE07B000BD00080140003001409F
:1007300002E008C8121F08C1002AFAD170477047AA
:10074000002001E001C1121F002AFBD17047FFF712
:100750007BFF00BFFEE700006807000800000020E4
:08076000080500004007000835
:04000005080000ED02
:00000001FF
