:020000040800F2
:100000001005002045010008150A000875080008C1
:10001000110A000809080008F30D0008000000009C
:10002000000000000000000000000000190A0008A5
:100030000D08000800000000170A0008050B000862
:100040005F0100085F0100085F0100085F01000810
:100050005F0100085F0100085F0100085F01000800
:100060005F0100085F010008550800085F010008F3
:100070005F0100085F0100085F0100085F010008E0
:100080005F0100085F0100085F0100085F010008D0
:100090005F0100085F0100085F0100085F010008C0
:1000A0005F0100085F0100085F0100085F010008B0
:1000B0005F0100085F0100085F0100085F010008A0
:1000C0005F0100085F0100085F0100085F01000890
:1000D0005F010008690B00085F0100085F0100086C
:1000E0005F0100085F0100085F0100085F01000870
:1000F0005F0100085F0100085F0100085F01000860
:100100005F0100085F0100085F0100085F0100084F
:100110005F0100085F0100085F0100085F0100083F
:100120005F0100085F0100085F0100085F0100082F
:10013000DFF80CD000F02AFA004800473D1700080D
:10014000100500200648804706480047FEE7FEE706
:10015000FEE7FEE7FEE7FEE7FEE7FEE7FEE7FEE777
:10016000090B000831010008D2B201E000F8012BB0
:10017000491EFBD270470022F6E710B513460A4627
:1001800004461946FFF7F0FF204610BD30B50B4678
:10019000014600202022012409E021FA02F59D42B7
:1001A00005D303FA02F5491B04FA02F52844151E8B
:1001B000A2F10102F1DC30BD2DE9F05F054600201F
:1001C00092469B4688460646814640241BE02846C8
:1001D00041464746224600F0FAF953465A46C01AAD
:1001E000914110D311461846224600F0E1F92D1A2C
:1001F00067EB01084F4622460120002100F0D8F9A4
:1002000017EB00094E41201EA4F10104DFDC484633
:1002100031462A464346BDE8F09F2DE9FE4F804611
:1002200081EA0300C00F0C46009021F0004123F04A
:100230000045B8EB0200A94105D240462146904650
:100240001C460B46024623F00040104347D0270DC2
:10025000C7F30A00C3F30A510290401A01904028E4
:100260006BDAC3F3130040F4801B0098924620B170
:100270000023D2EB030A63EB0B0B01985946C0F144
:100280004002504600F094F906460D465046594645
:10029000019A00F0ACF910EB08006141002487EAF4
:1002A000115284EAE7731A4340D0009A62B3019A6C
:1002B000012A4FEA075215DC001B61EB02014FF0E7
:1002C000004202EA0752CDE90042001C41F58011CC
:1002D00032462B4600F0ACF903B0BDE8F08F404643
:1002E0002146F9E7001B61EB0201001C41F5801378
:1002F00000185B412018A2F5001747EB030140EA04
:10030000D570B6196D4111E06D084FEA360645EA21
:10031000C0754FEA0752001B61EB0201001C41F55A
:10032000801149084FEA30000019514132462B46EE
:1003300003B0BDE8F04F00F06CB900980122400016
:100340000023D0EB020263EBE073009821464FEAF2
:10035000E074B8EB000061EB0401E9E783F00043CF
:100360005BE781F0004158E72DE9FE4F81EA030485
:1003700004F0004421F0004100944FF0000B23F002
:10038000004350EA01045ED052EA03045BD0C3F399
:100390000A54C1F30A552C44A4F2F3340194A0FB8F
:1003A0000254C1F3130141F48011C3F3130343F466
:1003B000801301FB024400FB034E840A970A44EABF
:1003C000815447EA8357A4FB076802958D0A05FB11
:1003D00007854FEA932C04FB0C542705029D4FEA36
:1003E000065847EA1637B5EB08056EEB070C870E83
:1003F000920E47EA811742EA8312A7FB0201B6EB8D
:100400000B0164EB00042B0D43EA0C335E1844EB44
:100410001C50DA465146E7FB0201C5F313044FEACC
:100420000B3343EA14534FEA0432019C43EA0603B8
:10043000A4F10C040294009CCDE900B400F0F8F89B
:1004400003B0BDE8F08F00200146F9E72DE9F04D3B
:1004500081EA030404F0004B21F0004514464FF0FC
:10046000000A23F0004150EA050220D054EA0102BC
:100470001DD0C5F30A570246C5F31303C1F3130099
:10048000C1F30A5640F4801543F48013A7EB060825
:10049000101BD64608F2FD3873EB050002D308F1B5
:1004A000010801E092185B41B8F1000F03DA002067
:1004B0000146BDE8F08D00204FF4801106468446C9
:1004C0000EE0171B73EB050705D3121B63EB050347
:1004D00006434CEA010C49084FEA300092185B4190
:1004E00050EA0107EDD152EA030012D082EA04007B
:1004F00083EA0501084305D0101BAB4106D2012257
:10050000002306E000224FF0004302E06FF00102FA
:1005100053101AEB06004CEB085110EB0A0041EBAC
:100520000B01BDE8F04D00F074B8C1F30A52C1F3FD
:10053000130140F2FF3341F480119A4202DA0020A5
:100540000146704740F233439A42A2F2334202DC42
:10055000524200F03CB800F02BB8000030B5041E49
:1005600071F1000404DB4FF00044404264EB0101F0
:10057000141E73F1000405DB1C464FF00043524289
:1005800063EB0403994208BF904230BD064C074D0F
:1005900006E0E06840F0010394E807009847103453
:1005A000AC42F6D3FFF7C8FD301800085018000819
:1005B000202A04DB203A00FA02F100207047914023
:1005C000C2F1200320FA03F3194390407047202A18
:1005D00004DB203A21FA02F00021704721FA02F3ED
:1005E000D040C2F120029140084319467047202AAA
:1005F00006DBCB17203A41FA02F043EAE07306E04B
:1006000041FA02F3D040C2F120029140084319465A
:10061000704710B5141E73F1000408DA401C41F154
:10062000000192185B411A4301D120F0010010BD76
:100630002DE9F04D92469B4611B1B1FA81F202E0EC
:10064000B0FA80F220329046FFF7B2FF04460F4620
:1006500040EA0A0041EA0B0153465A46084313D0C8
:10066000114653EA010019D0C8F140025046FFF785
:10067000AEFF05460E46504659464246FFF798FFE4
:10068000084305D0012004E020463946BDE8F08D3E
:100690000020054346EAE0762C4337430A98630579
:1006A000E40AA0EB08000022FD0A44EA47540A309D
:1006B00002D500200146E9E7010510196941DDE98D
:1006C000084500196941BDE8F04DA2E710B54B4857
:1006D000806940F08000494988610846806940F49B
:1006E000004088610846406820F440404860084661
:1006F000406840F4004048604148006820F00F0026
:100700003F4908600846006808603E48006820F4D9
:1007100070003C4908603B480830006820F01F002A
:100720003849083108600846006840F00600086053
:1007300034481C38006840F4E01032491C39086025
:1007400030482838006820F480702E492839086025
:10075000081D006840F48010091D08600846006804
:1007600040F4602008600846006820F400600860DB
:100770000846006840F0020008600846006820F063
:10078000010008600A2000F042F81E482438006882
:1007900040F001001B4924390860012000F037F8BF
:1007A00018482438006840F00800164924390860C9
:1007B00000BF14482438006800F008000028F8D171
:1007C00010482438006840F004000E4924390860BD
:1007D00000BF0C482438006800F004000028F8D15D
:1007E00008482438006840F00100064924390860B0
:1007F0000846006840F48000086010BD0010024008
:10080000041C01402C3C014000BFFEE7704700B5CE
:10081000034603E04FF47A7000F005F8181EA3F1C8
:100820000103F7D100BD00EBC001C9004FF0E02289
:100830005161002191610521116100BF4FF0E0215C
:10084000096901F480310029F8D004214FF0E02239
:10085000116170470548006800F0100028B11020B1
:1008600002490860012002490870704714040140E1
:100870000000002000BFFEE710B50D48006800F042
:10088000040080B91420FFF7C2FF0948006800F097
:10089000040050B900BF0648006800F010000028AE
:1008A000F9D0012010BD0020FCE70020FAE700008D
:1008B0000818014010B52A48806940F040002849D6
:1008C00088610846806940F0010088612548006819
:1008D0002549084023490860084600682349084321
:1008E000204908601F480C30006840F01C001D497A
:1008F0000C3108601E48C06820F00F011C48C16020
:10090000C06840F004011A48C1601A48006840F00D
:1009100010001849086017480C38006840F01000B3
:1009200014490C3908600A200321002807DA0A0755
:10093000140E114A00F00F031B1FD45403E00A07E2
:10094000130E0E4A135400BF0A20012181404209B0
:10095000920002F1E022C2F8001100BF10BD0000B9
:100960000010024000180140FF00F0FF00440400A6
:10097000000001400C04014018ED00E000E400E03C
:100980001948806940F008001749886117480068D5
:1009900020F47000154908600846006840F44010D3
:1009A000086012480C30006840F020000F490C31FC
:1009B00008600D48806940F040000B4988610C4890
:1009C000006820F470000A4908600846006840F496
:1009D0004010086006480C30006840F020000449D0
:1009E0000C3108607047000000100240000C01400C
:1009F0000018014000BF0548006800F00200002810
:100A0000F9D002484C30006880B27047003C014089
:100A100000BFFEE770477047704710B500F002F85E
:100A200010BD00000CB50020019000903348006814
:100A300040F480303149086000BF3048006800F45D
:100A4000003000900198401C0190009818B901985E
:100A5000B0F5A06FF1D12948006800F4003010B162
:100A60000120009001E0002000900098012843D16F
:100A70002348006840F010002149086008460068DB
:100A800020F0030008600846006840F0020008609B
:100A90001A48406819494860084640684860084656
:100AA000406840F4806048600846406820F47C104C
:100AB00048600846406840F4E8104860084600680E
:100AC00040F08070086000BF0C48006800F00070C3
:100AD0000028F9D00948406820F003000749486021
:100AE0000846406840F00200486000BF0348406884
:100AF00000F00C000828F9D10CBD000000100240E5
:100B0000002002407047000010B51348006840F014
:100B100001001149086008464068104908400E4924
:100B20004860084600680E4908400B4908600846BE
:100B3000006820F4802008600846406820F4FE0029
:100B400048604FF41F008860FFF767FF4FF00060B8
:100B50000449086010BD0000001002400000FFF8CA
:100B6000FFFFF6FE08ED00E010B5254890F8000103
:100B700020B14FF482712248FFF7FDFA2148008826
:100B800000F0100098B11F4800881E48001D008822
:100B900001201B4981F800011BA000F0DFF8184874
:100BA000B0F8021100F0EDF81FA000F015F915489B
:100BB000008800F0200010B31248001D0088104982
:100BC000B1F802110E4A50541046B0F80201401C10
:100BD0001146A1F802010846B0F80201B0F5807F85
:100BE0000DD1012081F8000110A000F0F5F80448B3
:100BF000B0F8021100F0C5F80BA000F0EDF810BD40
:100C00000800002000380140B4AEBFDABDD3CAD519
:100C1000B9A6C4DCD5FDB3A3A3ACBDD3CAD5B5C4B6
:100C2000CAFDBEDDCEAAA3BA0D0A0000555341523B
:100C3000543120526563762044617461203A20006B
:100C400030B502463F48806940F004003D49886164
:100C50000846806940F4804088613B48006840F461
:100C600000703949086038480838006820F0F00002
:100C70003549083908600846006840F0B00008604F
:100C80003148006840F480602F4908602E480838D9
:100C9000006820F470602C49083908600846006834
:100CA00040F4006008602948008820F480502749FB
:100CB00008800846008820F4806008800846008884
:100CC00040F0080008800846008840F004000880D2
:100CD000081D008820F44050091D08801C48B0FB06
:100CE000F2F01A49091F088025200E21002807DA92
:100CF0000B071D0E174B00F00F04241F1D5503E0BA
:100D00000B071C0E144B1C5400BF252000F01F03C2
:100D10000121994043099B0003F1E023C3F800112E
:100D200000BF0A48008840F02000084908800846B3
:100D3000008840F0100008800846008840F4005009
:100D4000088030BD001002400C0801400C38014002
:100D500000A24A0418ED00E000E400E00FB400B582
:100D6000A1B023A80090802101A8009B229A00F046
:100D700053F80020009001A800F02EF821B05DF893
:100D800014FB30B504460D4603E0207800F007F868
:100D9000641C281EA5F101018DB2F6D130BD00B54D
:100DA0000346184600F002F800BD000000BF0949E4
:100DB000098801F080010029F9D0C0F30801054A33
:100DC000121D118000BF0349098801F0400100296C
:100DD000F9D070470038014030B50446002504E0E2
:100DE000605DFFF7DCFF681CC5B2605D0028F7D1CD
:100DF00030BD00BFFEE700000FB4054B10B503A9DE
:100E0000044A029800F0F0F810BC5DF814FB0000F2
:100E10002D170008040000207CB5044600201D4664
:100E2000164600290BD0491ECDE90041044B6A4605
:100E30002946304600F0D8F8009A002111707CBD98
:100E40001717000802E008C8121F08C1002AFAD1CB
:100E500070477047002001E001C1121F002AFBD13A
:100E6000704700002DE9FF5F82B00021DDE904300A
:100E7000020DDDF840B0034318D044F61050A2F242
:100E8000FF3242431514119801281FD0A5EB0B0027
:100E9000401C5FEA000A4FF000064E4FDFF8389121
:100EA000B046504615D5CAF1000413E0119801244C
:100EB0004AA3012801D16FEA0B010298119AC0E9F7
:100EC0000031C0E9024206B0BDE8F09FCBF100005E
:100ED000DFE704460021404A491842EB0450CDE9BF
:100EE000001012E0E00707D032463B464046494634
:100EF000FFF73AFA8046894632463B461046194685
:100F0000FFF732FA06460F466410002CEAD1DDE9FD
:100F10000401DDE90023BAF1000F06DAFFF724FA35
:100F200042464B46FFF720FA05E0FFF78FFA4246AC
:100F30004B46FFF78BFA04460E460022284BFFF77C
:100F40000DFB03D84FF0FF30014607E00022254B90
:100F500020463146FFF761F9FFF7E7FA102409E070
:100F6000002C0ADB0A220023FFF726F9039B30320C
:100F70001A55641E50EA0102F2D1641C039AC4F1AE
:100F800011031444119A012A03D0012208430DD100
:100F90000AE0084304D000204FF0110B119072E7D3
:100FA000A3EB0B056D1E0DE05B4504DD4FF0000269
:100FB00005F1010504E003DA4FF00002A5F1010597
:100FC000002AECD002981199C0E90231C0E900452D
:100FD00079E70000000014400000F03F30000000FE
:100FE0000000F0430000E03F2DE9FF4F95B09B4625
:100FF0008946064600250FE2252877D1002427469A
:10100000F84A0121059400E0044316F8013F203B13
:1010100001FA03F01042F7D130782A2811D06FF08E
:101020002F033078A0F13002092A16D8059A44F02F
:10103000020402EB820203EB42021044761C05908C
:10104000EFE759F8042B0592002A03DA504244F4E2
:101050000054059044F00204761C30782E2816D1F6
:1010600016F8010F44F004042A280DD06FF02F0267
:101070003078A0F13003092B09D807EB870302EB86
:101080004303C718761CF3E759F8047B761C3078C5
:101090006C280FD006DC4C2817D068280DD06A28A1
:1010A00014D104E0742810D07A280FD10DE044F454
:1010B00000140AE044F4801401E044F4401472780F
:1010C000824202D104F58014761C761C30786628A2
:1010D0000BD013DC582877D009DC002875D04528C0
:1010E000F6D04628F4D047281AD19DE118E06328AD
:1010F00035D0642879D0652812D195E1702873D055
:1011000008DC6728F1D069286FD06E280DD06F28D1
:1011100006D1B5E073282CD0752875D0782874D006
:101120005A46179990476D1C75E1C4F30250022886
:1011300009D003280DD0D9F8001004280DD00D6077
:1011400009F1040967E1D9F80010EA17C1E9005272
:10115000F6E7D9F800100D80F2E70D70F0E719F806
:10116000041B8DF8001000208DF80100EA460120D4
:1011700003E059F804AB4FF0FF3061074FF0000176
:1011800002D40DE008F101018846B9420FDA80452A
:10119000F8DB1AF808100029F4D108E008F1010181
:1011A00088468142FADB1AF808100029F6D1059822
:1011B0005B46A0EB080721463846179A00F094FAE0
:1011C000284400EB080507E04DE029E10DE01AF89E
:1011D000010B5A4617999047B8F10108F7D25B46C0
:1011E00021463846179A13E142E00A220092C4F3DE
:1011F00002524FF0000A022A08D059F804CB032A01
:101200004FEAEC710AD00DE029E02AE009F107016C
:1012100021F00702F2E802C1914609E00FFA8CFCC6
:101220004FEAEC71042A03D14FFA8CFC4FEAEC71BF
:10123000002907DA0A460021DCF1000C61EB02010B
:101240002D2202E0220504D52B228DF80420012254
:1012500003E0E20701D02022F7E7904659E00A2197
:1012600002E010220DE010214FF0000A00910BE087
:1012700010224FF0000A44F004040827009203E013
:1012800008224FF0000A0092C4F30252022A05D04D
:1012900059F804CB0021032A08D009E009F107011D
:1012A00021F00702F2E802C1914605E01FFA8CFC2A
:1012B000042A01D10CF0FF0C4FF00008220728D5BA
:1012C000702806D0009B83F0100353EA0A0305D070
:1012D0000EE040228DF80420012208E05CEA0102C1
:1012E00006D030228DF804208DF8050002229046A9
:1012F000009B83F0080353EA0A030AD15CEA010267
:1013000001D1620705D530228DF804204FF0010885
:101310007F1E582804D034A003900EA802900DE040
:1013200036A0F9E753466046009AFEF745FF84462B
:101330000398825C0298401E029002705CEA0100F1
:10134000F0D1029806A9081A00F1200A600702D518
:1013500024F4803400E00127574502DDA7EB0A00A2
:1013600000E0002000EB0A01009005984144401A7B
:101370000590E00306D45B462146179A059800F0D5
:10138000B3F90544002706E001A85A46C05D179945
:1013900090476D1C7F1C4745F6DBE0030CD55B4690
:1013A0002146179A059800F09FF9054404E0302083
:1013B0005A46179990476D1C0099481E00900029C5
:1013C000F5DC08E0029802995A460078491C02911F
:1013D000179990476D1CBAF10001AAF1010AF1DCDE
:1013E00065E10000092801003031323334353637E9
:1013F0003839616263646566000000003031323361
:101400003435363738394142434445460000000000
:1014100000F058F90544761C307800287FF4ECADD4
:1014200019B02846BDE8F08F620700D4062709F1FD
:10143000070222F0070CFCE80223E14603F0004813
:101440005FEA080C02D00FF2702C0DE05FEA045C3A
:1014500002D50FF2682C07E05FEAC47C02D00FF2DD
:10146000602C01E0AFF2700C4FF0FF3823F0004326
:10147000CDF850C065280CD006DC452809D0462898
:101480001DD047283DD13DE0662818D067287ED181
:1014900038E00021112F01DB112000E0781CCDE99C
:1014A000000106A90EA8FFF7DDFCDDE90F010E9A89
:1014B00003910021009207F1010A04914DE04FF0E1
:1014C00000400097CDE9011006A90EA8FFF7CAFC5D
:1014D000DDE90F0203920E9B11990022DDF80CA0AA
:1014E0000093049211B9791C00EB010AB7EB0A00D2
:1014F00004D4C0F1FF3007F1010A0490AAEB070001
:10150000019044E0012F00DA01270021112F01DDB5
:10151000112000E03846CDE9000106A90EA8FFF72A
:10152000A1FCDDE90F010E9A0391002104910092C4
:10153000BA4621070CD40399514500DA8A46BAF11C
:10154000010F05DD009AAAF10101515C302908D094
:10155000B84202DA10F1040F06DA0121CDE90110D8
:1015600015E0AAF10101E9E7002805DC049901442E
:101570000491AAEB000102E0411C514500DD8A46BE
:101580000499401A401C01904FF00040029020073F
:1015900004D40198504501DBCDF8048000208DF87B
:1015A0004F0002980DF14F07B0F1004F25D02B20CE
:1015B0000E9002984FF0020800280CDA4042029088
:1015C0002D200E9007E00A210298FEF7DFFD303152
:1015D000029007F8011DB8F10001A8F10108F2DC42
:1015E00002980028EFD1791E0E980870307800F02C
:1015F000200040F0450007F8020D12A8C01B00F1C2
:1016000007081498007800B1012000EB0A01019846
:1016100001EBE07105984144401A401E0590E0033B
:1016200006D45B462146179A059800F05DF80544FC
:101630001498007818B15A46179990476D1CE0032A
:1016400024D55B462146179A059800F04DF80544CD
:101650001CE00498002807DBDDE90301884203DD74
:101660000098405C179901E0179930205A4690473E
:10167000049805F10105401C04900198401E01905A
:1016800004D12E205A46179990476D1CBAF10001DB
:10169000AAF1010ADDDC05E017F8010B5A4617999B
:1016A00090476D1CB8F10001A8F10108F4DC5B461D
:1016B0002146179A0598ABE62D0000002B0000008C
:1016C000200000002DE9F041044600251E46174683
:1016D000880404D405E039462020B0476D1C641E00
:1016E000F9D52846BDE8F0812DE9F04104460025F2
:1016F0001E469046C80301D5302700E02027880405
:1017000004D505E041463846B0476D1C641EF9D546
:101710002846BDE8F0814A68002A06D00A68531CB2
:101720000B6010704868401E4860704730B5044632
:101730000D46E0B2FFF733FB204630BD4FF4A06109
:1017400001F007021D4B18684FF6FF0318401C4BB1
:10175000034343EA0220194B186000BFFFF710F95A
:10176000FFF7A8F8FEF7B2FF4FF4E130FFF768FA91
:1017700000BF14A0FFF740FB1FE01748007828B116
:1017800000201549087015A0FFF736FBFFF774F825
:1017900098B1FFF72FF90446214617A0FFF72CFB5D
:1017A000642004FB00F5E81705EB105001131AA0A4
:1017B000FFF722FBC820FFF72AF8DEE70CED00E078
:1017C0000000FA05B4AEBFDACAE4B3F6B9A6C4DCC9
:1017D000D5FDB3A30D0A000000000020B0B4BCFC8E
:1017E000204558544920D6D0B6CFD5FDB3A3BDF877
:1017F000D0D00D0A00000000B5B1C7B0B2C9BCAF6F
:10180000B5BDB5C42041444320CAFDD6B5CEAAA378
:10181000BA25640D0A000000B6D4D3A6B5B1C7B08E
:10182000C1C1B6C8CEAAA3BA256425250D0A0000F9
:10183000501800080000002008000000440E0008B6
:10184000581800080800002008050000540E000881
:08185000000000000000000090
:0400000508000131BD
:00000001FF
