:020000040800F2
:10000000A808002001010008D507000841070008E2
:10001000D10700087F050008291000080000000033
:10002000000000000000000000000000ED080008D3
:100030008305000800000000D7070008D909000860
:100040001B0100081B0100081B0100081B01000820
:100050001B0100081B0100081B0100081B01000810
:100060001B0100081B0100081B0100081B01000800
:100070001B0100081B0100081B0100081B010008F0
:100080001B0100081B0100081B0100081B010008E0
:100090001B0100081B0100081B0100081B010008D0
:1000A0001B0100081B0100081B0100081B010008C0
:1000B0001B0100081B0100081B0100081B010008B0
:1000C0001B0100081B0100081B0100081B010008A0
:1000D0001B0100085D0B0008D90B0008C10D0008CA
:1000E0001B0100081B0100081B010008DFF80CD0F1
:1000F00000F014FA0048004719170008A80800206B
:100100000648804706480047FEE7FEE7FEE7FEE7B1
:10011000FEE7FEE7FEE7FEE7FEE7FEE7DD09000893
:10012000ED00000840EA01039B0703D009E008C97D
:10013000121F08C0042AFAD203E011F8013B00F8AC
:10014000013B521EF9D27047D2B201E000F8012BF8
:10015000491EFBD270470022F6E710B513460A4647
:1001600004461946FFF7F0FF204610BDF0B480EAC0
:100170000102D40F4200B2EB410F02D20246084600
:1001800011464A0042D0C30DDDB2C1F3C752AD1AC9
:10019000202D35DAC1F3160141F4000204B15242B8
:1001A000C5F1200602FA06F12A411044B3EBD05FF4
:1001B00023D0C4B1012DA0EBC35009DCF0BC4FF03B
:1001C000004202EAC352DBB200F5000000F01BB9A6
:1001D000400000F1807000EBC350A0F1807040EA55
:1001E000D170490009E0490841EAC071A0EBC35051
:1001F00000F50000400800EBC350F0BC00F0FAB876
:100200006142012202EB4101001BF6E7F0BC70479E
:1002100081F00041AAE780F00040A7E780EA0102F0
:1002200010B502F00043400022D04A001FD0010E5A
:1002300001EB1261C0F35600C2F3560240F4000015
:1002400042F40002A0FB022000047F39140400D015
:10025000401C50EA124001D44000491EC2B20C06B4
:1002600004EBD010401C4008802A02D003E000209C
:1002700010BD20F00100002900DA0020184310BD55
:100280002DE9F04D81EA030404F0004B21F0004514
:1002900014464FF0000A23F0004150EA050220D036
:1002A00054EA01021DD0C5F30A570246C5F31303F1
:1002B000C1F31300C1F30A5640F4801543F48013D0
:1002C000A7EB0608101BD64608F2FD3873EB0500B5
:1002D00002D308F1010801E092185B41B8F1000F68
:1002E00003DA00200146BDE8F08D00204FF48011B4
:1002F000064684460EE0171B73EB050705D3121B59
:1003000063EB050306434CEA010C49084FEA300051
:1003100092185B4150EA0107EDD152EA030012D076
:1003200082EA040083EA0501084305D0101BAB41B3
:1003300006D20122002306E000224FF0004302E033
:100340006FF0010253101AEB06004CEB085110EB52
:100350000A0041EB0B01BDE8F04D00F082B8C10F7F
:1003600080EAE0700844CA079623002100F04BB8E9
:100370000EB540F2334102910021CDE900110A4649
:100380000B4600F07DF803B000BD00F0004220F005
:100390000040C10DC0F3160040F400007F2901DACF
:1003A00000207047962903DCC1F19601C84001E0A6
:1003B00096398840002AF4D04042704701F000434B
:1003C00030B421F0004150EA010206D00A0DA2F536
:1003D0006072C1F31301002A02DC30BC00207047B8
:1003E000440F44EAC104C100E01830BC00EBC25025
:1003F000AFF300800029A8BF7047401C490008BF28
:1004000020F00100704710B4B0FA80FC00FA0CF044
:1004100050EA010404BF10BC704749B1CCF120047C
:1004200021FA04F411FA0CF118BF01212143084309
:10043000A3EB0C01CB1D4FEA00614FEA102042BF35
:10044000002010BC704700EBC35010440029A4BF2B
:1004500010BC7047401C490008BF20F0010010BCD0
:10046000704710B5141E73F1000408DA401C41F106
:10047000000192185B411A4301D120F0010010BD28
:100480002DE9F04D92469B4611B1B1FA81F202E09E
:10049000B0FA80F22032904600F052F804460F463F
:1004A00040EA0A0041EA0B0153465A46084313D07A
:1004B000114653EA010019D0C8F14002504600F03D
:1004C0004EF805460E4650465946424600F038F86A
:1004D000084305D0012004E020463946BDE8F08DF0
:1004E0000020054346EAE0762C4337430A9863052B
:1004F000E40AA0EB08000022FD0A44EA47540A304F
:1005000002D500200146E9E7010510196941DDE93E
:10051000084500196941BDE8F04DA2E7064C074DBA
:1005200006E0E06840F0010394E8070098471034C3
:10053000AC42F6D3FFF7DEFDC8170008E817000845
:10054000202A04DB203A00FA02F100207047914093
:10055000C2F1200320FA03F3194390407047202A88
:1005600004DB203A21FA02F00021704721FA02F35D
:10057000D040C2F12002914008431946704700BFA5
:10058000FEE7704747E000BF00BF00BF00BF00BFED
:1005900000BF00BF00BF00BF00BF00BF00BF00BF63
:1005A00000BF00BF00BF00BF00BF00BF00BF00BF53
:1005B00000BF00BF00BF00BF00BF00BF00BF00BF43
:1005C00000BF00BF00BF00BF00BF00BF00BF00BF33
:1005D00000BF00BF00BF00BF00BF00BF00BF00BF23
:1005E00000BF00BF00BF00BF00BF00BF00BF00BF13
:1005F00000BF00BF00BF00BF00BF00BF00BF00BF03
:1006000000BF00BF00BF00BF00BF00BF00BF00BFF2
:1006100000BF00BF00BF011EA0F10100B3D17047B1
:100620002DE9F04102460025002600200023002489
:10063000002791F803C00CF00F0591F803C00CF0EF
:10064000100CBCF1000F03D091F802C04CEA050574
:1006500091F800C0BCF1000F31D0146800202BE0ED
:100660004FF0010C0CFA00F3B1F800C00CEA0306DD
:100670009E4220D183004FF00F0C0CFA03F7BC43CD
:1006800005FA03FC4CEA040491F803C0BCF1280FFE
:1006900006D14FF0010C0CFA00FCC2F814C00AE0BD
:1006A00091F803C0BCF1480F05D14FF0010C0CFAD2
:1006B00000FCC2F810C0401C0828D1D31460B1F867
:1006C00000C0BCF1FF0F34DD546800202EE000F1C3
:1006D000080C4FF0010808FA0CF3B1F800C00CEA5E
:1006E00003069E4221D183004FF00F0C0CFA03F752
:1006F000BC4305FA03FC4CEA040491F803C0BCF1C6
:10070000280F05D100F1080C08FA0CF8C2F8148083
:1007100091F803C0BCF1480F07D100F1080C4FF06D
:10072000010808FA0CF8C2F81080401C0828CED343
:100730005460BDE8F0810AB1016100E04161704799
:1007400000BFFEE70848806940F00800064988615C
:100750000648006820F070400449086008460068B8
:1007600040F080400860704700100240000C0140DB
:100770001248806940F00800104988610846806985
:1007800040F0010088610E48406840F000700C495C
:1007900048600C4800680C4908400A49086008464F
:1007A00000680A4908430749086006480C30006899
:1007B00040F0700003490C3108607047001002409F
:1007C00000000140000C0140FFFF00F00000220289
:1007D00000BFFEE77047704729B1064AD26902435D
:1007E000044BDA6104E0034AD2698243014BDA61C7
:1007F000704700000010024029B1064A9269024386
:10080000044B9A6104E0034A92698243014B9A6166
:10081000704700000010024030B500210022002483
:1008200000232D4D6D6805F00C0121B1042905D080
:10083000082923D105E0294D056022E0274D0560F8
:100840001FE0254D6D6805F47012234D6D6805F4A9
:100850008034022505EB92421CB9214D55430560B9
:100860000BE01D4D6D6805F400351DB11C4D554361
:10087000056002E0194D5543056002E0174D056023
:1008800000BF00BF144D6D6805F0F0010909154D5A
:100890006B5C0568DD4045600F4D6D6805F4E061F7
:1008A000090A104D6B5C4568DD4085600A4D6D6836
:1008B00005F46051C90A0B4D6B5C4568DD40C560AD
:1008C000054D6D6805F44041890B074D6B5CC568AB
:1008D000B5FBF3F5056130BD0010024000127A004F
:1008E00000093D000000002010000020704710B5F6
:1008F00000F002F810BD00000CB50020019000903F
:100900003348006840F480303149086000BF304807
:10091000006800F4003000900198401C019000989D
:1009200018B90198B0F5A06FF1D12948006800F41A
:10093000003010B10120009001E0002000900098EC
:10094000012843D12348006840F010002149086085
:100950000846006820F0030008600846006840F080
:10096000020008601A484068194948600846406813
:1009700048600846406840F4806048600846406827
:1009800020F47C1048600846406840F4E810486055
:100990000846006840F08070086000BF0C4800689E
:1009A00000F000700028F9D00948406820F00300EA
:1009B000074948600846406840F00200486000BFB0
:1009C0000348406800F00C000828F9D10CBD000075
:1009D00000100240002002407047000010B513488C
:1009E000006840F00100114908600846406810495D
:1009F00008400E494860084600680E4908400B4907
:100A000008600846006820F48020086008464068B6
:100A100020F4FE0048604FF41F008860FFF767FF76
:100A20004FF000600449086010BD00000010024053
:100A30000000FFF8FFFFF6FE08ED00E02DE9F05F93
:100A400004464FF00009CB46CA463E48806940F054
:100A500004003C4988610846806940F48040886110
:100A60003948006820F47F6037490860084600680C
:100A700040F4966008603548008820F4805033497F
:100A800008800846008820F48060088008460088B6
:100A900040F0300008800846008840F00C000880D4
:100AA000081D008820F44050091D088025200021E1
:100AB000002807DA0A07150E254A00F00F031B1F4E
:100AC000D55403E00A07130E224A135400BF252011
:100AD00000F01F02012191404209920002F1E02240
:100AE000C2F8001100BF2001FFF742FC07463A465A
:100AF0000B4600201849FFF7C3FB0546FFF75EFCD5
:100B000081464846FFF741FC82465046FFF727FCE6
:100B100005464946FFF77FFB83464FF08341584621
:100B2000FFF77CFB0546FFF730FC40EA0A10074957
:100B3000091F0880081D008840F40050091D088026
:100B4000BDE8F09F00100240040801400C3801404D
:100B500018ED00E000E400E0882A914110B5184843
:100B6000008800F0200080B11548008820F02000A7
:100B700013490880081D0088C1B212480278007825
:100B8000401C104B1870104881540D48008800F02C
:100B9000100098B10A4800880C4908700848001DE8
:100BA0000088087008490AA000F024FD0548017873
:100BB0000548FFF7D0FA00200249087010BD000078
:100BC00000380140140000203400002015000020EF
:100BD00025730D0A0000000010B5002400BF40F28C
:100BE0002551184800F064F9012817D140F2255129
:100BF000144800F035F9144890F8800070B9114895
:100C0000001D0088C1B21048D0F88420D0F88400BC
:100C1000401C0D4BC3F884001846815440F2244117
:100C2000084800F045F901280AD106480088C4B2F6
:100C30000448001D0088C4B20120034981F88000E7
:100C400010BD000000440040340200202DE9F05F98
:100C500004465448806940F00800524988610846BB
:100C6000806940F0010088614F48406840F00070A2
:100C70004D4948604B48C06940F480204949C861EB
:100C80004A48006820F470404849086008460068F7
:100C900040F48050086045480C30006820F008009F
:100CA00042490C3108604148001D006820F4706022
:100CB0003E49091D08600846006840F4306008603D
:100CC0000846006820F4704008600846006840F458
:100CD000804008603648008820F4805034490880FD
:100CE0000846008820F4806008800846008840F0AC
:100CF0000C0008800846008840F030000880081D7D
:100D0000008820F44050091D08802001FFF730FBC7
:100D100007463A460B4600202649FFF7B1FA05463A
:100D2000FFF74CFB81464846FFF72FFB82465046B3
:100D3000FFF715FB05464946FFF76DFA83464FF06E
:100D400083415846FFF76AFA0546FFF71EFB40EA63
:100D50000A101749091F088027200021002807DAF8
:100D60000A07150E144A00F00F031B1FD55403E0A9
:100D70000A07130E114A135400BF272000F01F0268
:100D8000012191404209920002F1E022C2F80011D3
:100D900000BF0748008840F4005005490880BDE8BE
:100DA000F09F00000010024000000140000C0140D4
:100DB0000C480040882A814118ED00E000E400E082
:100DC00010B51A48008800F0200080B1174800884C
:100DD00020F0200015490880081D0088C1B2144881
:100DE00002680068401C124B1860124881540F487A
:100DF000008800F01000B8B10C4800880E49086067
:100E00000A48001D008808600A490CA000F0F2FBA7
:100E100007480178074800F0C5FB00200449086036
:100E2000FF210448FFF797F910BD0000004800407B
:100E300018000020330100202000002025730D0A37
:100E40000000000000BF0549098801F040010029A9
:100E5000F9D00249091D0880704700000048004091
:100E600010B50022002340F66A14A14200D100BF51
:100E70000A1201249440A3B2DC43048010BD21B1C6
:100E8000828942F40052828104E082894DF6FF7328
:100E90001A408281704702460020B1F5007F00D1E0
:100EA00000BF13880B400BB1012000E00020704709
:100EB00070B50246002400230025002040F66A1683
:100EC000B14200D100BFC1F3421501F01F0301265A
:100ED00006FA03F3012D02D19689334006E0022D74
:100EE00002D1168A334001E0968A33400C12012663
:100EF00006FA04F41688344013B10CB1012000E066
:100F0000002070BDF0B50346002400260025002017
:100F100040F66A17B94200D100BF1846C1F3421427
:100F200001F01F06012707FA06F5012C01D10C304C
:100F300004E0022C01D1103000E014301AB107682F
:100F40002F43076002E00768AF430760F0BD000071
:100F50002DE9F04786B005460E460024A24600BFA4
:100F6000A1460027B08900B100BF2F462C8A4CF65D
:100F7000FF700440F08804432C82AC894EF6F310D5
:100F80000440B08831890843718908430443AC8127
:100F9000AC8A4FF6FF400440B0890443AC8201A8FC
:100FA000FFF73AFC1F48874202D1DDF810A001E0AC
:100FB000DDF80CA0A88900F4004040B10AEBCA009B
:100FC00000EB0A1031684900B0FBF1F807E00AEBCA
:100FD000CA0000EB0A1031688900B0FBF1F8642008
:100FE000B8FBF0F004012009642101FB1089A889F5
:100FF00000F4004040B1322000EBC900B0FBF1F03A
:1010000000F00700044308E0322000EB09106421DF
:10101000B0FBF1F000F00F0004432C8106B0BDE8F6
:10102000F08700000038014000BFFEE710B537E050
:101030001C48007820B101280ED003282DD129E0CA
:101040003C2000F075FA00BF174890F88000002897
:10105000FAD000F0ADF822E014480078012810D151
:101060001348007800EB4000124931F8300040B1DD
:101070000F49097801EB41010E4A32F8310000F0C6
:10108000CDF900BF084890F880000028FAD000F0A1
:101090008FF804E000F08CF801E0002010BD00BFE4
:1010A000C6E7000024000020340200202A000020AF
:1010B0002B000020BC02002030B585B00446012181
:1010C0000C20FFF799FB01214804FFF785FB18204E
:1010D0008DF813000420ADF8100003208DF81200E5
:1010E00004A92E48FFF79CFA04208DF8130008206D
:1010F000ADF8100004A92948FFF792FA10208DF8E6
:1011000013004002ADF8100004A92548FFF788FA43
:1011100000940020ADF80C000C20ADF80A0000206F
:10112000ADF80800ADF80600ADF8040069461D48AA
:10113000FFF70EFF012240F225511A48FFF7E2FEA9
:10114000012240F224411748FFF7DCFE262001214E
:10115000002807DA0A07150E134A00F00F031B1FB9
:10116000D55403E00A07130E104A135400BF26207B
:1011700000F01F02012191404209920002F1E02299
:10118000C2F8001100BF01210648FFF778FE0122D6
:1011900051030348FFF7CFFA05B030BD0008014006
:1011A000000C01400044004018ED00E000E400E0C5
:1011B00070B50024864890F8800001287ED18448CC
:1011C000D0F88400032800D2F5E081480078FE289A
:1011D0000FD17F4890F88400401EC1B27C4800F0D7
:1011E000F9F97B49D1F88410491E794A515C88424B
:1011F00000D0E0E076488078022809D17448C078B1
:10120000412805D103207349087073A000F0F2F95A
:101210006F488078022871D16D48C07882286DD1DE
:1012200071480078012869D169484079684989790D
:1012300040EA01206D49097801EB41016C4A22F82E
:1012400031006348807A6949097801EB410102EB7A
:10125000C101C8705E48C17A6448007800EB400064
:1012600002EBC00001715A48017B6048007800EB36
:10127000400002EBC00041715548417B5B4800785B
:1012800000EB400002EBC00081715148817B574860
:10129000007800EB400002EBC000C1714C48C17BFC
:1012A0005248007800EB400002EBC0000172484851
:1012B000017C4E48007800EB400000E086E002EB45
:1012C000C00041724248417C4848007800EB400031
:1012D00002EBC0008172002501203E49087045A044
:1012E00000F088F93A48D0F88410FEF734FF002067
:1012F0003749C1F8840081F8800000BF3448807805
:10130000022857D13248C078432853D13048D0F80A
:101310008410FEF720FF00202D49C1F8840081F8D9
:10132000800000BF2A4890F880000028FAD02848A2
:1013300090F8800001283DD125488078022839D1D5
:101340002348C078832835D127480078012831D137
:101350001F48807802282DD11D48807A23490978BA
:1013600001EB4101224A02EBC101887000240EE02A
:1013700004F10B001649095C1C48007800EB4000A2
:101380001B4A02EBC00010300155601CC4B210486B
:10139000807AA042ECDC01201B49087002200D4934
:1013A00008701A48006820F010001849086018A05A
:1013B00000F020F900BF0648D0F88410FEF7CBFEFD
:1013C00000200349C1F8840081F8800070BD00004E
:1013D0003402002024000020CDF8C2E7D2D1B4F2BC
:1013E000BFAA0D0A000000002A0000202B000020E8
:1013F000BC020020C9E8B1B8D2D1BCD3C8EBCDF84B
:10140000C2E7210D0A000000250000200C0C01405D
:10141000706F696E74206F6B210D0A0030B589B052
:1014200005460024202101A8FEF795FEFE22214654
:10143000641C01A842540A222146641C4254022220
:101440002146641C425403222146641C4254022259
:101450002146641C42542146641C45542A122146EC
:10146000641C425400222146641C4254042221463A
:10147000641C4254E1B200F0ADF801A90855601CAB
:10148000C1B201A800F08EF809B030BD0FB430B57C
:1014900089B0499D0024202101A8FEF75CFEFE22B0
:1014A0002146641C01A842540B222146641C42546C
:1014B00005222146641C425401222146641C4254E8
:1014C00002222146641C4254BDF83000C2B22146BB
:1014D000641C01A84254BDF8300002122146641C6D
:1014E00001A842541048007800EB40000F4901EB7E
:1014F000C000027C2146641C01A842540A222146F5
:10150000641C42542146641C4554E1B200F062F868
:1015100001A90855601CC1B201A800F043F809B048
:1015200030BC5DF814FB00002B000020BC02002042
:1015300030B589B005460024202101A8FEF70BFE36
:10154000FE222146641C01A842540B222146641C41
:10155000425402222146641C425401222146641C4A
:10156000425402222146641C425400222146641C3B
:1015700042542146641C42542146641C42540422B5
:101580002146641C42542146641C4554E1B200F0DB
:1015900021F801A90855601CC1B201A800F002F8A9
:1015A00009B030BD70B505460E46002400BF0CE002
:1015B00000BF40210648FFF76EFC0028F9D0285DE7
:1015C0000349091D0880601CC4B2B442F0DB70BD41
:1015D0000044004010B50246002300201078521C41
:1015E00000BF03E014786040521C5B1C4C1E9C4200
:1015F000F8D810BD0FB4054B10B503A9044A0298E2
:1016000000F017F810BC5DF814FB00000917000883
:101610003000002002E008C8121F08C1002AFAD1D9
:1016200070477047002001E001C1121F002AFBD162
:1016300070472DE9F84F994692468846054600279F
:1016400006E025280AD051464A4690476D1C7F1C6B
:1016500028780028F5D13846BDE8F88F002315F822
:10166000011F18462E2915D115F8011F04232A2918
:101670000DD06FF02F022978A1F13004092C09D880
:1016800000EB800002EB400008446D1CF3E758F8C3
:10169000040B6D1C2A78002ADDD0632A07D0732A38
:1016A0000FD0104651464A4690477F1C2AE018F852
:1016B000042B8DF8002000218DF801106E460121C9
:1016C00003E058F8046B4FF0FF315A074FF0000465
:1016D00001D409E0641C84420BDA8C42FADB325DEF
:1016E000002AF7D105E0641C8C42FCDB305D002849
:1016F000F9D1274404E016F8010B51464A469047B9
:10170000641EF8D26D1CA3E700B502460B46D0B2AA
:10171000FFF798FB104600BDBAB0052002461F4BEC
:1017200019684FF6FF0319401D4B0B4343EA022192
:101730001A4B196000BF4FF41650FFF77FF94FF4B2
:10174000E130FFF7B9FC4FF41650FFF77FFAFEF7D0
:10175000F9FFFFF70DF813A0FFF74CFFFFF766FC4A
:101760001BE01248006800F08000B0B91048FEF796
:1017700009FF0E48006800F0800070B90220E422E2
:101780000C4939906846FEF7CDFC0A4810380FC85E
:10179000FFF77CFE08A0FFF72DFFE2E70CED00E06D
:1017A0000000FA053132330D0A000000080C014038
:1017B000400D0300CC0200206D6F646520636861FA
:1017C0006E67650D0A000000E817000800000020A1
:1017D00034000000141600081C1800083400002013
:1017E0007408000024160008000000000102030431
:1017F00001020304060708090204060800000000AD
:1018000000000000000000000000000000000000D8
:0C181000000001000000000000000000CB
:04000005080000ED02
:00000001FF
