:020000040800F2
:100000000805002001010008ED0900081D0900088D
:10001000E90900087B080008630D000800000000E3
:10002000000000000000000000000000F1090008CE
:100030007F08000800000000EF090008DD0A000842
:100040001B0100081B0100081B0100081B01000820
:100050001B0100081B0100081B0100081B01000810
:100060001B0100081B0100081B0100081B01000800
:100070001B0100081B0100081B0100081B010008F0
:100080001B0100081B0100081B0100081B010008E0
:100090001B0100081B0100081B0100081B010008D0
:1000A0001B0100081B0100081B0100081B010008C0
:1000B0001B0100081B0100081B0100081B010008B0
:1000C0001B0100081B0100081B0100081B010008A0
:1000D0001B010008610C00081B0100081B0100083F
:1000E0001B0100081B0100081B010008DFF80CD0F1
:1000F00000F080FB004800476D160008080500204E
:100100000648804706480047FEE7FEE7FEE7FEE7B1
:10011000FEE7FEE7FEE7FEE7FEE7FEE7E10A00088E
:10012000ED000008F0B480EA0102D40F4200B2EB07
:10013000410F02D20246084611464A0042D0C30D82
:10014000DDB2C1F3C752AD1A202D35DAC1F3160165
:1001500041F4000204B15242C5F1200602FA06F150
:100160002A411044B3EBD05F23D0C4B1012DA0EBE2
:10017000C35009DCF0BC4FF0004202EAC352DBB2CC
:1001800000F5000000F062B9400000F1807000EB63
:10019000C350A0F1807040EAD170490009E04908DD
:1001A00041EAC071A0EBC35000F50000400800EB2D
:1001B000C350F0BC00F041B96142012202EB4101A1
:1001C000001BF6E7F0BC704781F00041AAE780F021
:1001D0000040A7E780EA010210B502F000434000AA
:1001E00022D04A001FD0010E01EB1261C0F356006D
:1001F000C2F3560240F4000042F40002A0FB0220C9
:1002000000047F39140400D0401C50EA124001D48D
:100210004000491EC2B20C0604EBD010401C40083E
:10022000802A02D003E0002010BD20F00100002948
:1002300000DA0020184310BD2DE9F04D81EA0304D7
:1002400004F0004B21F0004514464FF0000A23F063
:10025000004150EA050220D054EA01021DD0C5F346
:100260000A570246C5F31303C1F31300C1F30A563C
:1002700040F4801543F48013A7EB0608101BD64604
:1002800008F2FD3873EB050002D308F1010801E024
:1002900092185B41B8F1000F03DA00200146BDE877
:1002A000F08D00204FF48011064684460EE0171BA7
:1002B00073EB050705D3121B63EB050306434CEAFA
:1002C000010C49084FEA300092185B4150EA0107DF
:1002D000EDD152EA030012D082EA040083EA05015C
:1002E000084305D0101BAB4106D20122002306E0D3
:1002F00000224FF0004302E06FF0010253101AEBAE
:1003000006004CEB085110EB0A0041EB0B01BDE875
:10031000F04D00F0C9B8C10F80EAE0700844CA0788
:100320009623002100F092B80EB540F233410291BD
:100330000021CDE900110A460B4600F0C4F803B0D5
:1003400000BD00F0004220F00040C10DC0F31600D7
:1003500040F400007F2901DA00207047962903DC71
:10036000C1F19601C84001E096398840002AF4D0D6
:100370004042704701F0004330B421F0004150EAA0
:10038000010206D00A0DA2F56072C1F31301002A22
:1003900002DC30BC00207047440F44EAC104C100B5
:1003A000E01830BC00EBC25000F047B830B50B4647
:1003B000014600202022012409E021FA02F59D4295
:1003C00005D303FA02F5491B04FA02F52844151E69
:1003D000A2F10102F1DC30BD2DE9F05F05460020FD
:1003E00092469B4688460646814640241BE02846A6
:1003F00041464746224600F01EFA53465A46C01A66
:10040000914110D311461846224600F005FA2D1AE4
:1004100067EB01084F4622460120002100F0FCF95D
:1004200017EB00094E41201EA4F10104DFDC484611
:1004300031462A464346BDE8F09F0029A8BF7047D1
:10044000401C490008BF20F00100704710B4B0FA0A
:1004500080FC00FA0CF050EA010404BF10BC7047A5
:1004600049B1CCF1200421FA04F411FA0CF118BFBF
:10047000012121430843A3EB0C01CB1D4FEA00618E
:100480004FEA102042BF002010BC704700EBC35061
:1004900010440029A4BF10BC7047401C490008BF8D
:1004A00020F0010010BC704710B5141E73F1000459
:1004B00008DA401C41F1000192185B411A4301D156
:1004C00020F0010010BD2DE9F04D92469B4611B180
:1004D000B1FA81F202E0B0FA80F22032904600F0E8
:1004E0009BF904460F4640EA0A0041EA0B015346D5
:1004F0005A46084313D0114653EA010019D0C8F1F7
:100500004002504600F097F905460E4650465946BF
:10051000424600F081F9084305D0012004E020465E
:100520003946BDE8F08D0020054346EAE0762C43CD
:1005300037430A986305E40AA0EB08000022FD0A8D
:1005400044EA47540A3002D500200146E9E7010594
:1005500010196941DDE9084500196941BDE8F04D10
:10056000A2E72DE9FE4F804681EA0300C00F0C464A
:10057000009021F0004123F00045B8EB0200A941B2
:1005800005D24046214690461C460B46024623F0C3
:100590000040104347D0270DC7F30A00C3F30A51A8
:1005A0000290401A019040286BDAC3F3130040F424
:1005B000801B0098924620B10023D2EB030A63EB24
:1005C0000B0B01985946C0F14002504600F024F947
:1005D00006460D4650465946019A00F03CF910EB8C
:1005E00008006141002487EA115284EAE7731A4344
:1005F00040D0009A62B3019A012A4FEA075215DCF3
:10060000001B61EB02014FF0004202EA0752CDE904
:100610000042001C41F5801132462B46FFF753FF84
:1006200003B0BDE8F08F40462146F9E7001B61EBBF
:100630000201001C41F5801300185B412018A2F54F
:10064000001747EB030140EAD570B6196D4111E080
:100650006D084FEA360645EAC0754FEA0752001B9F
:1006600061EB0201001C41F5801149084FEA30009E
:100670000019514132462B4603B0BDE8F04FFFF759
:1006800013BF0098012240000023D0EB020263EB6D
:10069000E073009821464FEAE074B8EB000061EB8C
:1006A0000401E9E783F000435BE781F0004158E78C
:1006B0002DE9FE4F81EA030404F0004421F00041DB
:1006C00000944FF0000B23F0004350EA01045ED089
:1006D00052EA03045BD0C3F30A54C1F30A552C4415
:1006E000A4F2F3340194A0FB0254C1F3130141F4CA
:1006F0008011C3F3130343F4801301FB024400FB96
:10070000034E840A970A44EA815447EA8357A4FBBC
:10071000076802958D0A05FB07854FEA932C04FBB9
:100720000C542705029D4FEA065847EA1637B5EBE9
:1007300008056EEB070C870E920E47EA811742EA16
:100740008312A7FB0201B6EB0B0164EB00042B0D37
:1007500043EA0C335E1844EB1C50DA465146E7FB83
:100760000201C5F313044FEA0B3343EA14534FEA73
:100770000432019C43EA0603A4F10C040294009C99
:10078000CDE900B4FFF79FFE03B0BDE8F08F002075
:100790000146F9E7C1F30A52C1F3130140F2FF33F6
:1007A00041F480119A4202DA00200146704740F27B
:1007B00033439A42A2F2334202DC524200F03BB889
:1007C00000F02AB830B5041E71F1000404DB4FF0CC
:1007D0000044404264EB0101141E73F1000405DB88
:1007E0001C464FF00043524263EB0403994208BF9A
:1007F000904230BD064C074D06E0E06840F0010332
:1008000094E8070098471034AC42F6D3FFF772FC27
:10081000D8160008F8160008202A04DB203A00FA4F
:1008200002F1002070479140C2F1200320FA03F347
:10083000194390407047202A04DB203A21FA02F045
:100840000021704721FA02F3D040C2F1200291400A
:10085000084319467047202A06DBCB17203A41FA95
:1008600002F043EAE07306E041FA02F3D040C2F13D
:100870002002914008431946704700BFFEE77047C9
:1008800047E000BF00BF00BF00BF00BF00BF00BF08
:1008900000BF00BF00BF00BF00BF00BF00BF00BF60
:1008A00000BF00BF00BF00BF00BF00BF00BF00BF50
:1008B00000BF00BF00BF00BF00BF00BF00BF00BF40
:1008C00000BF00BF00BF00BF00BF00BF00BF00BF30
:1008D00000BF00BF00BF00BF00BF00BF00BF00BF20
:1008E00000BF00BF00BF00BF00BF00BF00BF00BF10
:1008F00000BF00BF00BF00BF00BF00BF00BF00BF00
:1009000000BF00BF00BF00BF00BF00BF00BF00BFEF
:1009100000BF011EA0F10100B3D1704700BFFEE788
:100920000848806940F00800064988610648006868
:1009300020F07040044908600846006840F080409C
:100940000860704700100240000C014012488069A6
:1009500040F00800104988610846806940F00100B5
:1009600088610E48406840F000700C4948600C48AF
:1009700000680C4908400A490860084600680A49AE
:1009800008430749086006480C30006820F07000F2
:1009900003490C310860704700100240000001401C
:1009A000000C0140FFFF00F0000022020348006835
:1009B00080F0100001490860704700000C0C0140F5
:1009C0000348006880F0200001490860704700007B
:1009D0000C0C01400348006880F0400001490860A9
:1009E000704700000C0C014000BFFEE770477047E5
:1009F000704710B500F002F810BD00000CB50020E3
:100A0000019000903348006840F48030314908601C
:100A100000BF3048006800F4003000900198401C8E
:100A20000190009818B90198B0F5A06FF1D129484C
:100A3000006800F4003010B10120009001E00020B7
:100A400000900098012843D12348006840F010002E
:100A5000214908600846006820F003000860084645
:100A6000006840F0020008601A4840681949486070
:100A70000846406848600846406840F48060486026
:100A80000846406820F47C1048600846406840F4FE
:100A9000E81048600846006840F08070086000BFB9
:100AA0000C48006800F000700028F9D00948406840
:100AB00020F00300074948600846406840F0020003
:100AC000486000BF0348406800F00C000828F9D1D6
:100AD0000CBD0000001002400020024070470000E2
:100AE00010B51348006840F001001149086008463D
:100AF0004068104908400E494860084600680E49A1
:100B000008400B4908600846006820F4802008600F
:100B10000846406820F4FE0048604FF41F008860DB
:100B2000FFF767FF4FF000600449086010BD000048
:100B3000001002400000FFF8FFFFF6FE08ED00E0A5
:100B40002DE9F05F04464FF00009CB46CA463E4807
:100B5000806940F004003C4988610846806940F49F
:100B6000804088613948006820F47F603749086018
:100B70000846006840F4966008603548008820F414
:100B80008050334908800846008820F4806008803F
:100B90000846008840F0300008800846008840F091
:100BA0000C000880081D008820F44050091D0880B2
:100BB00025200021002807DA0A07150E254A00F033
:100BC0000F031B1FD55403E00A07130E224A1354C8
:100BD00000BF252000F01F02012191404209920030
:100BE00002F1E022C2F8001100BF2001FFF79CFBD8
:100BF00007463A460B4600201849FFF71DFB0546FD
:100C0000FFF7B8FB81464846FFF79BFB82465046FC
:100C1000FFF781FB05464946FFF7D9FA83464FF0B7
:100C200083415846FFF7D6FA0546FFF78AFB40EAAC
:100C30000A100749091F0880081D008840F4005069
:100C4000091D0880BDE8F09F001002400408014023
:100C50000C38014018ED00E000E400E0882A9141E2
:100C600000B52148008800F02000E0B11E4800884F
:100C700020F020001C4908801C48B0F80201FF2821
:100C80000EDA081D0088C1B21848B0F80221B0F889
:100C90000201401C154BA3F802011846815402E0E2
:100CA0001148001D00881048008800F01000C8B1ED
:100CB0000D4800880C48001D008800200B49B1F841
:100CC00002110A4A50540120114681F8000108A07F
:100CD00000F03CF80548B0F8021100F015F809A042
:100CE00000F034F800BD000000380140040000208E
:100CF0005553415254312052656376204563686FE5
:100D0000203A20000D0A000000B502460B4603E021
:100D1000107800F007F8521C181EA3F101018BB2E5
:100D2000F6D100BD00BF0849098801F08001002903
:100D3000F9D00549091D088000BF0349098801F061
:100D400040010029F9D070470038014000B5024643
:100D500003E01078FFF7E6FF521C10780028F8D166
:100D600000BD00BFFEE700000FB4054B10B503A99E
:100D7000044A029800F0DAF810BC5DF814FB000099
:100D80005B1600080000002002E008C8121F08C11E
:100D9000002AFAD170477047002001E001C1121FFC
:100DA000002AFBD1704700002DE9FF5F82B00021CF
:100DB000DDE90430020DDDF840B0034318D044F6FD
:100DC0001050A2F2FF3242431514119801281FD08F
:100DD000A5EB0B00401C5FEA000A4FF000064E4FE7
:100DE000DFF83891B046504615D5CAF1000413E03B
:100DF000119801244AA3012801D16FEA0B0102983E
:100E0000119AC0E90031C0E9024206B0BDE8F09F86
:100E1000CBF10000DFE704460021404A491842EBCD
:100E20000450CDE9001012E0E00707D032463B46FF
:100E300040464946FFF73CFC8046894632463B46E1
:100E400010461946FFF734FC06460F466410002C86
:100E5000EAD1DDE90401DDE90023BAF1000F06DA89
:100E6000FFF726FC42464B46FFF722FC05E0FFF762
:100E7000E3F942464B46FFF7DFF904460E460022EF
:100E8000284BFFF79FFC03D84FF0FF30014607E0E7
:100E90000022254B20463146FFF763FBFFF77AFC23
:100EA000102409E0002C0ADB0A220023FFF794FA41
:100EB000039B30321A55641E50EA0102F2D1641CC1
:100EC000039AC4F111031444119A012A03D0012298
:100ED00008430DD10AE0084304D000204FF0110B65
:100EE000119072E7A3EB0B056D1E0DE05B4504DD71
:100EF0004FF0000205F1010504E003DA4FF00002B3
:100F0000A5F10105002AECD002981199C0E902313F
:100F1000C0E9004579E70000000014400000F03F00
:100F2000300000000000F0430000E03F2DE9FF4FDB
:100F300095B09B468946064600250FE2252877D1C5
:100F400000242746F84A0121059400E0044316F8DE
:100F5000013F203B01FA03F01042F7D130782A28F4
:100F600011D06FF02F033078A0F13002092A16D883
:100F7000059A44F0020402EB820203EB42021044A1
:100F8000761C0590EFE759F8042B0592002A03DA46
:100F9000504244F40054059044F00204761C30782A
:100FA0002E2816D116F8010F44F004042A280DD07B
:100FB0006FF02F023078A0F13003092B09D807EB2E
:100FC000870302EB4303C718761CF3E759F8047B49
:100FD000761C30786C280FD006DC4C2817D0682897
:100FE0000DD06A2814D104E0742810D07A280FD1CB
:100FF0000DE044F400140AE044F4801401E044F4E9
:1010000040147278824202D104F58014761C761C5A
:10101000307866280BD013DC582877D009DC0028FC
:1010200075D04528F6D04628F4D047281AD19DE13E
:1010300018E0632835D0642879D0652812D195E16D
:10104000702873D008DC6728F1D069286FD06E282B
:101050000DD06F2806D1B5E073282CD0752875D037
:10106000782874D05A46179990476D1C75E1C4F3DF
:101070000250022809D003280DD0D9F80010042806
:101080000DD00D6009F1040967E1D9F80010EA17E5
:10109000C1E90052F6E7D9F800100D80F2E70D70B3
:1010A000F0E719F8041B8DF8001000208DF80100FE
:1010B000EA46012003E059F804AB4FF0FF30610726
:1010C0004FF0000102D40DE008F101018846B94259
:1010D0000FDA8045F8DB1AF808100029F4D108E08F
:1010E00008F1010188468142FADB1AF8081000294C
:1010F000F6D105985B46A0EB080721463846179ABB
:1011000000F094FA284400EB080507E04DE029E1DF
:101110000DE01AF8010B5A4617999047B8F10108EB
:10112000F7D25B4621463846179A13E142E00A227D
:101130000092C4F302524FF0000A022A08D059F874
:1011400004CB032A4FEAEC710AD00DE029E02AE033
:1011500009F1070121F00702F2E802C1914609E016
:101160000FFA8CFC4FEAEC71042A03D14FFA8CFC85
:101170004FEAEC71002907DA0A460021DCF1000C85
:1011800061EB02012D2202E0220504D52B228DF80D
:101190000420012203E0E20701D02022F7E7904675
:1011A00059E00A2102E010220DE010214FF0000A60
:1011B00000910BE010224FF0000A44F004040827CD
:1011C000009203E008224FF0000A0092C4F302529A
:1011D000022A05D059F804CB0021032A08D009E0DF
:1011E00009F1070121F00702F2E802C1914605E08A
:1011F0001FFA8CFC042A01D10CF0FF0C4FF0000800
:10120000220728D5702806D0009B83F0100353EAEC
:101210000A0305D00EE040228DF80420012208E0E8
:101220005CEA010206D030228DF804208DF805001A
:1012300002229046009B83F0080353EA0A030AD176
:101240005CEA010201D1620705D530228DF8042045
:101250004FF001087F1E582804D034A003900EA838
:1012600002900DE036A0F9E753466046009AFFF77A
:10127000B3F884460398825C0298401E0290027084
:101280005CEA0100F0D1029806A9081A00F1200AD0
:10129000600702D524F4803400E00127574502DDC1
:1012A000A7EB0A0000E0002000EB0A01009005987F
:1012B0004144401A0590E00306D45B462146179A44
:1012C000059800F0B3F90544002706E001A85A4646
:1012D000C05D179990476D1C7F1C4745F6DBE00306
:1012E0000CD55B462146179A059800F09FF90544F6
:1012F00004E030205A46179990476D1C0099481E0B
:1013000000900029F5DC08E0029802995A4600781E
:10131000491C0291179990476D1CBAF10001AAF17E
:10132000010AF1DC65E100000928010030313233A7
:101330003435363738396162636465660000000011
:1013400030313233343536373839414243444546FB
:101350000000000000F058F90544761C30780028A1
:101360007FF4ECAD19B02846BDE8F08F620700D4D9
:10137000062709F1070222F0070CFCE80223E146E8
:1013800003F000485FEA080C02D00FF2702C0DE069
:101390005FEA045C02D50FF2682C07E05FEAC47CC8
:1013A00002D00FF2602C01E0AFF2700C4FF0FF386A
:1013B00023F00043CDF850C065280CD006DC45284A
:1013C00009D046281DD047283DD13DE0662818D0D9
:1013D00067287ED138E00021112F01DB112000E0C9
:1013E000781CCDE9000106A90EA8FFF7DDFCDDE9B8
:1013F0000F010E9A03910021009207F1010A049156
:101400004DE04FF000400097CDE9011006A90EA86D
:10141000FFF7CAFCDDE90F0203920E9B119900222F
:10142000DDF80CA00093049211B9791C00EB010ABD
:10143000B7EB0A0004D4C0F1FF3007F1010A0490B1
:10144000AAEB0700019044E0012F00DA01270021F8
:10145000112F01DD112000E03846CDE9000106A979
:101460000EA8FFF7A1FCDDE90F010E9A0391002100
:1014700004910092BA4621070CD40399514500DA31
:101480008A46BAF1010F05DD009AAAF10101515C0B
:10149000302908D0B84202DA10F1040F06DA01212F
:1014A000CDE9011015E0AAF10101E9E7002805DC0A
:1014B000049901440491AAEB000102E0411C51454A
:1014C00000DD8A460499401A401C01904FF000400C
:1014D0000290200704D40198504501DBCDF8048028
:1014E00000208DF84F0002980DF14F07B0F1004F2A
:1014F00025D02B200E9002984FF0020800280CDA1D
:10150000404202902D200E9007E00A210298FEF73B
:101510004DFF3031029007F8011DB8F10001A8F12C
:101520000108F2DC02980028EFD1791E0E980870AD
:10153000307800F0200040F0450007F8020D12A8B6
:10154000C01B00F107081498007800B1012000EBDF
:101550000A01019801EBE07105984144401A401ED0
:101560000590E00306D45B462146179A059800F0E3
:101570005DF805441498007818B15A4617999047B9
:101580006D1CE00324D55B462146179A059800F0B0
:101590004DF805441CE00498002807DBDDE9030151
:1015A000884203DD0098405C179901E017993020CC
:1015B0005A469047049805F10105401C0490019893
:1015C000401E019004D12E205A46179990476D1C59
:1015D000BAF10001AAF1010ADDDC05E017F8010B00
:1015E0005A46179990476D1CB8F10001A8F10108FF
:1015F000F4DC5B462146179A0598ABE62D00000007
:101600002B000000200000002DE9F04104460025D9
:101610001E461746880404D405E039462020B0470A
:101620006D1C641EF9D52846BDE8F0812DE9F04116
:10163000044600251E469046C80301D5302700E029
:101640002027880404D505E041463846B0476D1C84
:10165000641EF9D52846BDE8F08100B502460B4668
:10166000D0B2FFF75FFB104600BD00004FF4A06151
:1016700001F00702134B18684FF6FF031840124B96
:10168000034343EA02200F4B186000BFFFF75EF9E7
:10169000FFF746F94FF4E130FFF752FA11E0FFF798
:1016A0008FF90A48FFF7ECF8FFF780F90748FFF7D2
:1016B000E7F8FFF78FF90548FFF7E2F804A0FFF716
:1016C00053FBECE70CED00E00000FA0540420F0090
:1016D00031313131310D0A00F816000800000020C8
:1016E00004000000880D0008FC160008040000201B
:0C16F00004050000980D00080000000038
:04000005080000ED02
:00000001FF
