:020000040800F2
:10000000000400200101000855020008EB0100086F
:100010005102000849010008A9030008000000007F
:10002000000000000000000000000000590200086D
:100030004D010008000000005702000845030008B9
:100040001B0100081B0100081B0100081B01000820
:100050001B0100081B0100081B0100081B01000810
:100060001B0100081B0100081B0100081B01000800
:100070001B0100081B0100081B0100081B010008F0
:100080001B0100081B0100081B0100081B010008E0
:100090001B0100081B0100081B0100081B010008D0
:1000A0001B0100081B0100081B0100081B010008C0
:1000B0001B0100081B0100081B0100081B010008B0
:1000C0001B0100081B0100081B0100081B010008A0
:1000D0001B0100081B0100081B0100081B01000890
:1000E0001B0100081B0100081B010008DFF80CD0F1
:1000F00000F018F800480047CD0300080004002075
:100100000648804706480047FEE7FEE7FEE7FEE7B1
:10011000FEE7FEE7FEE7FEE7FEE7FEE7490300082D
:10012000ED000008064C074D06E0E06840F00103D2
:1001300094E8070098471034AC42F6D3FFF7DAFF93
:10014000400400085004000800BFFEE7704747E085
:1001500000BF00BF00BF00BF00BF00BF00BF00BFA7
:1001600000BF00BF00BF00BF00BF00BF00BF00BF97
:1001700000BF00BF00BF00BF00BF00BF00BF00BF87
:1001800000BF00BF00BF00BF00BF00BF00BF00BF77
:1001900000BF00BF00BF00BF00BF00BF00BF00BF67
:1001A00000BF00BF00BF00BF00BF00BF00BF00BF57
:1001B00000BF00BF00BF00BF00BF00BF00BF00BF47
:1001C00000BF00BF00BF00BF00BF00BF00BF00BF37
:1001D00000BF00BF00BF00BF00BF00BF00BF00BF27
:1001E000011EA0F10100B3D1704700BFFEE700007F
:1001F0001248806940F0080010498861084680690B
:1002000040F0010088610E48406840F000700C49E1
:1002100048600C4800680C4908400A4908600846D4
:1002200000680A4908430749086006480C3000681E
:1002300020F0700003490C31086070470010024044
:1002400000000140000C0140FFFF00F0000022020E
:1002500000BFFEE770477047704710B500F002F826
:1002600010BD00000CB500200190009033480068DC
:1002700040F480303149086000BF3048006800F425
:10028000003000900198401C0190009818B9019826
:10029000B0F5A06FF1D12948006800F4003010B12A
:1002A0000120009001E0002000900098012843D137
:1002B0002348006840F010002149086008460068A3
:1002C00020F0030008600846006840F00200086063
:1002D0001A4840681949486008464068486008461E
:1002E000406840F4806048600846406820F47C1014
:1002F00048600846406840F4E810486008460068D6
:1003000040F08070086000BF0C48006800F000708A
:100310000028F9D00948406820F0030007494860E8
:100320000846406840F00200486000BF034840684B
:1003300000F00C000828F9D10CBD000000100240AC
:10034000002002407047000010B51348006840F0DC
:1003500001001149086008464068104908400E49EC
:100360004860084600680E4908400B490860084686
:10037000006820F4802008600846406820F4FE00F1
:1003800048604FF41F008860FFF767FF4FF0006080
:100390000449086010BD0000001002400000FFF892
:1003A000FFFFF6FE08ED00E000BFFEE702E008C830
:1003B000121F08C1002AFAD170477047002001E0DF
:1003C00001C1121F002AFBD170470000FFF710FF88
:1003D0002CE01748006800F0800038BB1548FFF794
:1003E000B6FE1348006800F08000F8B91048001D00
:1003F000006840F010000E49091D086008460068BA
:1004000040F0200008600846006840F040000860A6
:100410000948FFF79CFE0648001D006820F0100008
:100420000349091D08600548FFF791FED1E7000068
:10043000080C0140A086010020A1070000350C0037
:10044000500400080000002000040000BC03000865
:04000005080000ED02
:00000001FF
